:020000040800F2
:10000000600A0020F10100085D170008551700087C
:1000100059170008971400087F2900080000000005
:100020000000000000000000000000007D19000832
:100030003D16000800000000E5170008691A0008D6
:100040000B0200080B0200080B0200080B0200085C
:100050000B0200080B0200080B0200080B0200084C
:100060000B0200080B0200080B0200080B0200083C
:100070000B0200080B0200080B0200080B0200082C
:100080000B0200080B0200080B0200080B0200081C
:100090000B0200080B0200080B0200080B0200080C
:1000A0000B020008511D00080B0200080B0200089B
:1000B0000B020008111E0008611E00080B02000858
:1000C0000B0200080B0200080B0200080B020008DC
:1000D0000B0200080B02000859260008152700082B
:1000E0000B0200080B0200080B0200080B020008BC
:1000F0000B0200080B0200080B0200080B020008AC
:100100000B0200080B020008CD1E00080B020008BD
:100110000B0200080B0200080B0200080B0200088B
:100120000B0200080B0200080B0200080B0200087B
:1001300000F002F800F04CF80AA090E8000C8244AD
:100140008344AAF10107DA4501D100F041F8AFF28A
:10015000090EBAE80F0013F0010F18BFFB1A43F0A5
:1001600001031847A8530000C8530000103A24BFE9
:1001700078C878C1FAD8520724BF30C830C144BF0C
:1001800004680C607047000000230024002500264E
:10019000103A28BF78C1FBD8520728BF30C148BFEA
:1001A0000B607047662905F0C080642900F08280EA
:1001B000002070471FB500F095FB040000200021CF
:1001C00003F0C0FFE06000F0F5F81FBD10B510BDF2
:1001D00000F0A8FC1146FFF7EDFF03F0D1FB00F0A3
:1001E000C6FC03B4FFF7F2FF03BC03F0BFFA000044
:1001F0000948804709480047FEE7FEE7FEE7FEE7BB
:10020000FEE7FEE7FEE7FEE7FEE7FEE704480549F6
:10021000054A064B70470000B11A0008310100087A
:1002200060040020600A00206006002060060020B4
:10023000704700000FB4044910B503AA029800F0FB
:100240003FFB10BC5DF814FB700000202DE9F0416D
:100250000E460446002020622046E168884730B3FD
:10026000252805D0D4E901219047206A401CF2E7F7
:10027000E168204600278847050018D0A5F1410015
:10028000192802D820354FF4006732462946204607
:100290002760FFF787FF40B1012804D0F61D26F044
:1002A00007060836D8E7361DD6E72846DAE7206A7B
:1002B000BDE8F0812DE9F04106460024106875295B
:1002C000314616A510D0AFF30080002802DA404274
:1002D00013A507E031688A0701D512A502E0490796
:1002E00004D511A5012401E0AFF3008000210A220A
:1002F00006F1240709E0B0FBF2FCB0FBF2F302FBCD
:100300001C00303078541846491C0028F3D123468D
:100310002A463046BDE8F04100F06AB8000000000F
:100320002D0000002B000000200000004FF0013CD9
:1003300050F8042B51F8043B9A4221D1A2EB0C0354
:10034000934313EACC1317D150F8042B51F8043B14
:100350009A4215D1A2EB0C03934313EACC130BD1B1
:1003600050F8042B51F8043B9A4209D1A2EB0C033C
:10037000934313EACC13DBD04FF00000704700BF6B
:10038000D01A01BAB1FA81F101F0180122FA01F094
:10039000CB40C1F12001DBB2C0B2C01A2CFA01F38C
:1003A000D11A914311EAC311E6D1704770477047E3
:1003B0007047000070B5064C7C44064D7D4403E058
:1003C000206820448047241DAC42F9D170BD000054
:1003D0008C5100008C510000704710B500F086FA77
:1003E000006810BD10B5044600F080FA046010BD2E
:1003F0002DE9F0470D4699469246044600F124083F
:100400000168880604D5E06921F01001216000E050
:100410000120A84201DD471B00E00027A1697A19ED
:1004200002EB0900081AA0612078C00602D4204619
:10043000AFF30080002608E0D4E901211AF8060095
:100440009047206A401C761C20624E45F4DB2078E1
:10045000C0060AD52046AFF3008006E0D4E90121AA
:1004600030209047206A401C2062381EA7F1010707
:10047000F4DC07E0D4E9012118F805009047206A70
:10048000401C2062281EA5F10105F3DC2046AFF3D5
:1004900000802078000602D50220BDE8F087012008
:1004A000FBE770472DE9FF4F0C461E464FF0FF3724
:1004B0008BB0D2E90001DDF860800A908A46C1F372
:1004C0000A5505B93D46002108464FF00000BAF133
:1004D000000F00F4400005DA00EB80004FF440010B
:1004E00001EA50004FEA9059B9F1010F00DDB94619
:1004F0000A9850EA4A000ED044F61050A5F2FF3593
:1005000045432F14B8F1000F1ED07542291E1EDD81
:10051000C9F100021CE0B8F1010F4FF0000001D05A
:10052000302103E0F24305E02154401CB042FBDBE4
:1005300030460022002121540B99C1F80880C1E9FE
:1005400000200FB0BDE8F08FBD1B6D1CDEE74A46F2
:1005500000DA694206A800F06BFA06AB93E80700E0
:1005600003AB83E8070050460A9900F009FB8DE8C9
:100570000700A0F500501F3800900398002D0ADDF9
:1005800042F21F014A460844002303A9039068462B
:1005900000F072FD09E0A0F500504A461F38002324
:1005A00003A90390684600F07CFD8DE80700000475
:1005B000000C03D04FF0FF30410800E01046B8F1C6
:1005C000000F03D00022009215461EE0751E05D4D0
:1005D00000F090F9303262556D1EF9D5B346012214
:1005E000084302D000227F1C04E02078302801D18B
:1005F00000227F1E002A099784D01DE0112D07DA02
:1006000000F078F9303262556D1C50EA0102F5D1E4
:10061000084302D00098C8B10EE00021681E05E032
:10062000235C625C63542254401E491C8142F7DB08
:10063000AB46A81B401E0990002004F80B000B9845
:10064000099AC0F80880C0E9002B7AE711264FF01C
:10065000000857E72DE9F04F88460446D21D22F0E6
:10066000070191B0D1E90001CDE90A0102F022FFB2
:1006700002460B98C00F01D02D2007E020688107AB
:1006800001D52B2002E0202101EAC000032A0990B5
:1006900001D0072A05DB03464146204600F088F9D1
:1006A0000BE12078800601D5E06900E00620B8F172
:1006B000650F814606D0B8F1660F18D0B8F1670F04
:1006C00070D131E00020B9F1110F009001DB11234E
:1006D00001E009F101030AAA01A90CA8FFF7E2FE53
:1006E000DDE90C70002609F10105834647E0012091
:1006F0004B4600904FF000470AAA01A90CA8FFF74B
:10070000D1FEDDE90DB00C995D46002610B909F166
:1007100001000D18B9EB050003D4C0F1FF3609F153
:100720000105A5EB09002BE0B9F1010F01DA4FF04B
:1007300001090020B9F1110F0090484601DD112395
:1007400000E003460AAA01A90CA8FFF7ABFEDDE909
:100750000C704D4600268346207800070AD4AB452E
:1007600000DA5D4601A8012D04DD411911F8011CD4
:10077000302907D04F4502DA17F1040F04DA0120BF
:1007800082460FE06D1EEEE7002F02DCED1B3E44BB
:1007900003E0781CA84200DD7D1CB81B00F1010AB3
:1007A0004FF000472078000703D4AA4501DB4FF043
:1007B000FF3A0021B7F1004F0DF143088DF84310C7
:1007C00024D002202B23002F01DA7F422D230A217F
:1007D000021EA0F1010000DC5FB197FBF1FC97FB6A
:1007E000F1F201FB1C7C17460CF1300C08F801CD2E
:1007F000EEE7A8F1010003702188090501D5452124
:1008000000E06521A0F1010800F8011C09980FA97A
:10081000A1EB0807FF1D00B10120411901EBEA70AF
:10082000A1693844081A401EA0612078C00602D48D
:100830002046AFF30080099828B1D4E90121904700
:10084000206A401C20622078C00622D52046AFF3E3
:1008500000801EE0002E04DBB34502DD01A8805DB0
:1008600000E03020D4E901219047206A401C20623A
:10087000761CAAF101005FEA000A0AD100F032F802
:10088000C0680168405CD4E901219047206A401C9F
:100890002062281EA5F10105DCDC07E0D4E9012176
:1008A00018F8010B9047206A401C2062381EA7F1FF
:1008B0000107F3DC2046AFF30080032011B041E6CE
:1008C000074B70B50D467B4400F05FF804462846A0
:1008D00000F020F910B14FF0FF3070BD204670BD20
:1008E0002330000000487047200400200048704773
:1008F0000004002030B5B0F10A024FEA900E71F109
:1009000000034EEA817EB0EB0E0061EB91014FEAED
:10091000101E4EEA017E10EB0E0041EB11114FEA62
:10092000102E4EEA016E10EB0E0041EB11214FEA42
:10093000104E4EEA014E10EB0E0041EB11414018F3
:1009400041F100014FEAD00040EA41704FEAD10185
:1009500010EB80054FEA810444EA907444EB0104F3
:100960006D1944EB0404521BA3414FF0000348BF30
:100970000A3200D530BD401C41F1000130BD0000FD
:1009800001694A1C02610878704700B58FB0CDE953
:1009900001310021059105497944CDE90310114643
:1009A0006846FFF753FC0FB000BD0000E5FFFFFFF6
:1009B0002DE9F0411F46044603260168072A01F489
:1009C000006004DB08B116A505E016A503E008B138
:1009D00015A500E015A521F010002060A069C01E3B
:1009E000A0610FB1401EA0612046AFF300804FB15F
:1009F000D4E9012138469047206A401C2062C01C7F
:100A0000206206E0206AFAE7D4E9012115F8010B1B
:100A10009047761EF8D22046AFF30080BDE8F08103
:100A20004E414E006E616E00494E4600696E660092
:100A30002DE9F047814616468AB0354878440DC8FE
:100A40008DE80D0032487844801C03AC0DC884E862
:100A50000D0041F69B300844372190FBF1F290FBEA
:100A6000F1F5A5F1800501FB12041B3C02D564429F
:100A7000012000E00020DFF898A080460027FA441B
:100A8000AAF1BE0A0EE0E0070AD03246684607EB3C
:100A9000470101230AEB810100F003FB8DE8070009
:100AA00064107F1C002CEED1194F7F44AE3F19E03B
:100AB000E80715D007EB04100DF1180A90E80E00B6
:100AC0008AE80E00C068F04201D1981908903246B9
:100AD000012306A903A800F0E4FA03AB83E80700AA
:100AE0006D10641C002DE3D14FF0010332466946BE
:100AF000B8F1000F03A802D000F0BEFA01E000F048
:100B0000D0FAC9E90001C9F808200AB0BDE8F087A9
:100B1000B44A0000007B00F0800070470048704736
:100B2000000400207546FFF7F9FFAE460500694650
:100B3000534620F00700854618B020B5FFF766FB46
:100B4000BDE820404FF000064FF000074FF00008CE
:100B50004FF0000B21F00701AC46ACE8C009ACE84F
:100B6000C009ACE8C009ACE8C0098D46704710B5B3
:100B70000446AFF300802046BDE81040FFF731BBCC
:100B80005FEA400C08BF91F0000F4FEA8C234FEA58
:100B9000C12243EA51514FEA1C5018BF00F5F04002
:100BA0004FEA300018BF41F000415FEA6C5C00F092
:100BB0002980BCF1FF3F08BF40F080407047130C14
:100BC00006BF12044FF0100C4FF0000C130E04BFC0
:100BD00012020CF1080C130F04BF12010CF1040CEB
:100BE000930F04BF92000CF1020CD30F04BF52000C
:100BF0000CF1010C11464FF00002A0F11F00A0EB18
:100C00000C00704711F0004F08BF704731F00041F1
:100C10003FF4D5AF0B0C06BF09044FF0100C4FF09A
:100C2000000C0B0E04BF09020CF1080C0B0F04BFE3
:100C300009010CF1040C8B0F04BF89000CF1020CAC
:100C4000CB0F04BF49000CF1010CCCF12003A0EB49
:100C50000C0022FA03F302FA0CF241EA030100F15C
:100C60000100704720F07F4C80EA030023F07F47AB
:100C7000ACEB070303F57C5300F0004003F1FF03E6
:100C80002DE980494FEA154B09B44FEA144325EA90
:100C90000B4E24EA03480FF2042606EB13274908FB
:100CA0003E785FEA320203FB0667C7F5000707FBE1
:100CB00006F64FEA54374FEAD64606F1020607FB1E
:100CC000066CCCF1005C4FEA1C472CEA074C07FB92
:100CD00006F40CFB06F504EB15464FEA961634BFF6
:100CE00000204FF000404FEAD13706FB07FC4FEAE7
:100CF0001C4C0CFB0BF7D21B03FB0CF761EB070141
:100D00000CFB0EF7B0EB074072EB17420CFB08F739
:100D100034BFA2EB0742B2EB074261EB17414FEA47
:100D20000C444FEA910706FB07FC4FEA1C4C0CFBF6
:100D30000BF7B0EBC74072EB573203FB0CF734BF35
:100D4000A2EBC742B2EBC74261EB57310CFB0EF787
:100D5000B0EBC70072EB57720CFB08F734BFA2EB85
:100D6000C702B2EBC70261EB5771039F4FEA816183
:100D700041EA921104EBCC044FEAD1374FEA826288
:100D800006FB07FC42EA90124FEA80604FEA1C4CD7
:100D90000CFB0BF7D21B03FB0CF761EB07010CFB01
:100DA0000EF7B0EB074072EB17420CFB08F734BFAD
:100DB000A2EB0742B2EB074261EB17414FEA8C55B9
:100DC0004FEA910704EB9C2406FB07FC4FEA1C4CFE
:100DD0000CFB0BF7B0EBC74072EB573203FB0CF781
:100DE00034BFA2EBC742B2EBC74261EB57310CFBF9
:100DF0000EF7B0EBC70072EB57720CFB08F734BF6D
:100E0000A2EBC702B2EBC70261EB577115EB4C25A1
:100E10004FEA816141EA92114FEA82624FEAD1378B
:100E200042EA901206FB07FC44F100044FEA80609E
:100E30004FEA1C4C0CFB0BF7D21B03FB0CF761EBCE
:100E400007010CFB0EF7B0EB074072EB17420CFBEF
:100E500008F734BFA2EB0742B2EB074261EB174140
:100E600015EB1C154FEA813141EA92414FEA82327B
:100E700042EA90424FEA80304FEA0C7644F1000497
:100E800048EA03434EEA0B484FF0000EB2EB080C61
:100E900071EB030724BF624639464EEB0E0E4FF04E
:100EA000000B0018524149414BEB0B0BB2EB080C05
:100EB00071EB03077BF1000B24BF624639464EEB12
:100EC0000E0E4FF0000B0018524149414BEB0B0B3B
:100ED000B2EB080C71EB03077BF1000B24BF6246F9
:100EE00039464EEB0E0E51EA020718BF46F00106D6
:100EF00016EB0E7655F1000254F1000103D5BDE862
:100F00008901BDE80088BDE88901BDE80048B6193F
:100F1000524141EB0101A3F10103704780807F7EC4
:100F20007D7C7B7A7978777676757473727171705F
:100F30006F6E6E6D6C6C6B6A6A6968686766666511
:100F40006464636362616160605F5F5E5E5D5D5C9F
:100F50005C5B5B5A5A595958585757565655555510
:100F60005454535352525251515050504F4F4F4E70
:100F70004E4D4D4D4C4C4C4B4B4B4A4A4A494949BE
:100F80004848484747474746464645454544444400
:100F9000444343434342424242414141002B9C4629
:100FA00030D477002BD01CB54FEA370703B44FF08D
:100FB00010004FF01001BAF1000F06D0BCF1000F85
:100FC000DCBF40F0080040F008014FF000000FBC0B
:100FD000BDE810400BF1010BBBF1010F08BF5FEA48
:100FE000170722BF12F1010211F101014FF0004178
:100FF00043F1000300F0004043EA00007047F9D3DA
:101000005708D0E746EA064613F1400F4FEA164666
:101010001FDD13F1200FDFBF16430A4600212033E6
:101020005B42BED0C3F1200746EA064602FA07F744
:101030004FEA164646EA0706C3F1200722FA03F2F2
:1010400001FA07F721FA03F14FF0000342EA070221
:10105000A7E746EA020646EA06464FEA164646EA89
:101060000106BCBF46EA0646360C4FF000034FF0BF
:1010700000024FF0000194E72DE9804C9A46934618
:1010800070B491E8380007C831EA400C48BF34EA30
:10109000430C03D5FFF7E6FDFFF780FFF0BCBDE88A
:1010A000008C2DE9804C9A46934670B491E8380044
:1010B00007C810F0804F08BF13F0804F03D100F035
:1010C00005F8FFF76BFFF0BCBDE8008C20F07F4710
:1010D00080EA030023F07F4C07EB0C03A3F57C535D
:1010E00000F00040A3F1FE0392F0000F00F0B38087
:1010F00095F0000F00F077802DE901494FEA11408B
:101100004FEA144621EA004800FB06FC24EA0647A1
:1011100008FB06F607FB08F800FB07F718EB064884
:101120004CEB164C4FEA124B18EB07484FEA1546AA
:101130004CEB174022EA0B4E0BFB06FC25EA064758
:101140000EFB06F607FB0EFE0BFB07F71EEB064E2B
:101150004CEB164C4FF000061EEB074E4CEB174BBA
:1011600018EB0B0840F1000018EB0E0B58EB0008D1
:1011700040F100008F1A4FF000013CBFC943661BCD
:1011800014BFB5EB040C00213CBFC943F61B4FEA6A
:1011900017444EEA8E0E27EA04454FEA1C4704FB2B
:1011A00007622CEA074C05FB07F70CFB05F604FB6E
:1011B0000CFC16EB074642EB174216EB0C4642EBD3
:1011C0001C421BEB060658EB0202414146EA9E0612
:1011D00001D5BDE80189B619524141EB0101A3F1E6
:1011E0000103BDE801894FEA14454FEA114724EA9B
:1011F000054621EA074C05FB07F406FB07F70CFB45
:1012000006F105FB0CFC11EB074144EB17444FEAD8
:10121000124711EB0C4144EB1C4422EA074C05FB3E
:1012200007F206FB07F70CFB06F605FB0CFC16EBBA
:10123000074642EB174216EB0C4642EB1C456A1878
:1012400054F1000148BF7047B619524141EB01010A
:10125000A3F10103704795F0000F37D04FEA114218
:101260004FEA144721EA024624EA074C02FB07F141
:1012700006FB07F70CFB06F402FB0CFC14EB07441F
:1012800041EB17414FEA154714EB0C4441EB1C416D
:1012900025EA074C02FB07F506FB07F70CFB06F6F1
:1012A00002FB0CFC16EB074645EB174516EB0C460C
:1012B00045EB1C42121951F1000148BF7047B619A5
:1012C000524141EB0101A3F1010370474FEA14457C
:1012D0004FEA114724EA054621EA074C05FB07F1CE
:1012E00006FB07F70CFB06F24FF0000605FB0CFCB3
:1012F00012EB074241EB174112EB0C4251EB1C4140
:1013000048BF7047921841EB0101A3F101037047F8
:1013100021B1826842F00102826003E0826822F01B
:1013200001028260704721B1826842F4807282605B
:1013300003E0826822F480728260704701460020D8
:101340008A6802F004020AB1012000E00020704720
:10135000014600208A6802F008020AB1012000E07C
:101360000020704730B502460020002350680F4C23
:1013700020400D790C6844EA0524204350609068B1
:101380000B4C2040D1E902542C434D7944EA4504EA
:1013900020439060D06A20F470000C7C641EE4B29C
:1013A000234340EA0350D06230BD0000FFFEF0FF4F
:1013B000FDF7F1FFF0B504460D4600200021092D90
:1013C00011DDE068A5F10A0606EB4607072606FAD6
:1013D00007F18843A5F10A0606EB460603FA06F173
:1013E0000843E0600CE0206905EB4507072606FA94
:1013F00007F1884305EB450603FA06F1084320612F
:10140000072A0FDA606B561E06EB86071F2606FAC0
:1014100007F18843561E06EB860605FA06F10843D7
:10142000606322E00D2A0FDA206BD61F06EB8607D9
:101430001F2606FA07F18843D61F06EB860605FA33
:1014400006F10843206310E0E06AA2F10D0606EB06
:1014500086071F2606FA07F18843A2F10D0606EB60
:10146000860605FA06F10843E062F0BD816841F0A6
:1014700008018160704721B1826842F4A002826055
:1014800003E0826822F4A00282607047816841F024
:1014900004018160704700BFFEE721B1026842F09D
:1014A0000102026004E002684FF6FE731A40026017
:1014B0007047000001684FF6FE7211400160002184
:1014C000016041608160C1604B49884208D14A494E
:1014D0000839496841F00F01474A083A51608AE0EB
:1014E00045491431884208D143490839496841F0D7
:1014F000F001414A083A51607DE03F492831884275
:1015000008D13D490839496841F470613A4A083ABE
:10151000516070E038493C31884208D13649083979
:10152000496841F47041344A083A516063E03249F5
:101530005031884208D130490839496841F4702156
:101540002D4A083A516056E02B496431884208D14F
:1015500029490839496841F47001274A083A51601D
:1015600049E025497831884208D12349083949683A
:1015700041F07061204A083A51603CE01F498842BE
:1015800006D1011F096841F00F01021F116032E00E
:101590001A491431884208D11849091F096841F0D5
:1015A000F001164A121F116025E0144928318842C3
:1015B00008D11249091F096841F470610F4A121FCE
:1015C000116018E00D493C31884208D10B49091FD0
:1015D000096841F47041094A121F11600BE0074984
:1015E0005031884207D10549091F096841F470212B
:1015F000024A121F116070470800024008040240AE
:1016000010B50022026847F6F0739A430C6A8B68A3
:1016100023430C6923434C6923438C692343CC69DE
:1016200023434C6A23438C6A23431A430260CB68EA
:1016300043600B6883604B68C36010BD70472DE941
:10164000F041024600250026002000230024002748
:1016500091F803C00CF00F0591F803C00CF0100CCA
:10166000BCF1000F03D091F802C04CEA050591F8D7
:1016700000C0BCF1000F31D0146800202BE04FF007
:10168000010C0CFA00F3B1F800C00CEA03069E420C
:1016900020D183004FF00F0C0CFA03F7BC4305FA7E
:1016A00003FC4CEA040491F803C0BCF1280F06D1F6
:1016B0004FF0010C0CFA00FCC2F814C00AE091F8DB
:1016C00003C0BCF1480F05D14FF0010C0CFA00FC2F
:1016D000C2F810C0401C0828D1D31460B1F800C073
:1016E000BCF1FF0F34DD546800202EE000F1080C3F
:1016F0004FF0010808FA0CF3B1F800C00CEA030639
:101700009E4221D183004FF00F0C0CFA03F7BC432B
:1017100005FA03FC4CEA040491F803C0BCF1280F5D
:1017200005D100F1080C08FA0CF8C2F8148091F801
:1017300003C0BCF1480F07D100F1080C4FF00108BD
:1017400008FA0CF8C2F81080401C0828CED3546068
:10175000BDE8F08100BFFEE700BFFEE77047000074
:1017600070B5002100230F22C47804B3154C2468FF
:1017700004F4E064C4F5E064210AC1F10403CA4042
:10178000447804FA03F184781440214309010E4C93
:101790000678A155047804F01F050124AC400578B3
:1017A0006D11AD0005F1E025C5F8004109E00478B0
:1017B00004F01F050124AC40044D0678761145F86D
:1017C000264070BD0CED00E000E400E080E100E0A8
:1017D00002490143024A1160704700000000FA0507
:1017E0000CED00E07047000001460020034A5068FD
:1017F00020F4404008435060704700000010024051
:1018000029B1064A52690243044B5A6104E0034A73
:1018100052698243014B5A61704700000010024038
:1018200029B1064AD2690243044BDA6104E0034A53
:10183000D2698243014BDA61704700000010024018
:1018400029B1064A12690243044B1A6104E0034AB3
:1018500012698243014B1A61704700000010024078
:1018600029B1064A92690243044B9A6104E0034A93
:1018700092698243014B9A61704700000010024058
:1018800029B1064AD2680243044BDA6004E0034AF5
:10189000D2688243014BDA607047000000100240BA
:1018A00030B500210022002400232D4D6D6805F085
:1018B0000C0121B1042905D0082923D105E0294DC7
:1018C000056022E0284D05601FE0254D6D6805F498
:1018D0007012234D6D6805F48034022505EB9242A9
:1018E0001CB9224D554305600BE01D4D6D6805F494
:1018F00000351DB11E4D5543056002E01A4D55439C
:10190000056002E0174D056000BF00BF144D6D6813
:1019100005F0F0010909174D6B5C0568DD40456075
:101920000F4D6D6805F4E061090A124D6B5C456866
:10193000DD4085600A4D6D6805F46051C90A0D4DA2
:101940006B5C4568DD40C560054D6D6805F4404140
:10195000890B094D6B5CC568B5FBF3F5056130BDBE
:101960000010024000127A00001BB70000093D0081
:10197000808D5B005900002069000020704710B581
:1019800000F002F810BD00000CB50020019000909E
:101990003348006840F480303149086000BF304867
:1019A000006800F4003000900198401C01900098FD
:1019B00018B90198B0F5A06FF1D12948006800F47A
:1019C000003010B10120009001E00020009000984C
:1019D000012843D12348006840F0100021490860E5
:1019E0000846006820F0030008600846006840F0E0
:1019F000020008601A484068194948600846406873
:101A000048600846406840F4806048600846406886
:101A100020F47C1048600846406840F48810486014
:101A20000846006840F08070086000BF0C480068FD
:101A300000F000700028F9D00948406820F0030049
:101A4000074948600846406840F00200486000BF0F
:101A50000348406800F00C000828F9D10CBD0000D4
:101A600000100240002002400E480068401C0D4952
:101A70000860084600683221B0FBF1F201FB120059
:101A800010B90120084908700648006842F2107138
:101A9000B0FBF1F201FB120010B9012003490870FC
:101AA00070470000AC000020B1000020B200002010
:101AB00010B51348006840F001001149086008465D
:101AC0004068104908400E494860084600680E49C1
:101AD00008400B4908600846006820F48020086030
:101AE0000846406820F4FE0048604FF41F008860FC
:101AF000FFF745FF4FF000600449086010BD00008B
:101B0000001002400000FFF8FFFFF6FE08ED00E0C5
:101B1000F0B50C46154600220021068C4FF6FE77E4
:101B20003E400684028B018C4FF60C7632407E1CC0
:101B300006EA03162E433243104EB0420ED0104E2A
:101B4000B0420BD0B0F1804F08D00E4EB04205D05D
:101B50000D4EB04202D00D4EB04206D14FF6FD768A
:101B6000314044F00106314305E04FF6F57631404F
:101B700044F00106314302830184F0BD002C014092
:101B8000003401400004004000080040000C004008
:101B9000F0B50C461546002200210026078C4FF6B2
:101BA000EF7C07EA0C070784028B018C4FF6FF7766
:101BB00007EA041640F6FF473A404FF6FF7707EA78
:101BC00003373A434FF6FF7707EA05273A43114FA9
:101BD000B8420ED0104FB8420BD0B0F1804F08D0B1
:101BE0000E4FB84205D00E4FB84202D00D4FB8424A
:101BF00006D14FF6DF77394046F01007394305E04C
:101C00004FF65F77394044F010073943028301846F
:101C1000F0BD0000002C01400034014000040040F1
:101C200000080040000C0040F0B50C4615460022AC
:101C300000210026078C4FF6FF6C07EA0C0707848B
:101C4000828B018C4FF6FF7707EA04264FF60C775C
:101C50003A404FF6FF7707EA03172F433A43114FF5
:101C6000B8420ED0104FB8420BD0B0F1804F08D020
:101C70000E4FB84205D00E4FB84202D00D4FB842B9
:101C800006D14FF6FF57394046F48077394305E0D7
:101C90004FF2FF57394044F48077394382830184FF
:101CA000F0BD0000002C0140003401400004004061
:101CB00000080040000C0040F0B50C46154600221C
:101CC00000210026078C4EF6FF7C07EA0C070784EC
:101CD000828B018C4FF6FF7707EA043640F6FF4708
:101CE0003A404FF6FF7707EA05273A434FF6FF776A
:101CF00007EA03373A43114FB8420ED0104FB842AB
:101D00000BD0B0F1804F08D00E4FB84205D00E4F27
:101D1000B84202D00D4FB84206D14DF6FF77394098
:101D200046F48057394305E047F6FF57394044F4FD
:101D30008057394382830184F0BD0000002C0140AC
:101D4000003401400004004000080040000C004046
:101D500070B50121204800F021FA00283AD0012076
:101D60001E4908701E4801F059FB1E4908601E48B4
:101D700001F054FB1D490860084602681C480168D0
:101D80001C4800F03FFF044602F0F2F91A490860CF
:101D90001448026819480168194800F033FF0446E6
:101DA00002F0E6F9174908601348006803F074F878
:101DB00004462146144801F00FF91248006803F068
:101DC0006BF804462146114801F006F9012102484A
:101DD00000F0ADF870BD0000002C0140150000209F
:101DE0009801002040000020BC0100203C000020A1
:101DF0004800002038010020500000204C00002046
:101E000068010020540000202C0100202001002047
:101E10001048008800F00100A0B101200E490870B0
:101E20000C481430008847F6FF71884205DA0B48E9
:101E30000068401C0949086004E008480068401E2A
:101E4000064908600348008820F001000149088025
:101E50007047000010040040900000209400002013
:101E600010B50121134800F099F908B30120124977
:101E700008701248006801F018FB0446104903F08E
:101E800073F908D30F48006801F00FFB04460C49B2
:101E900003F06AF905D20C480088401C0A49088002
:101EA00002E00020084908800121024800F03FF8C4
:101EB00010BD000000080040140000203C0000207D
:101EC0000000484240000020160000200E48008814
:101ED00000F0010088B10C481430008847F6FF710B
:101EE000884205DA09480068401C0849086004E097
:101EF00006480068401E054908600348008820F035
:101F00000100014908807047100C00409800002033
:101F100021B1028842F08002028004E002884FF67C
:101F20007F731A4002807047CA4302827047CA43D7
:101F30000282704721B1028842F00102028004E06F
:101F400002884FF6FE731A400280704731B1B0F834
:101F5000442042F40042A0F8442005E0B0F84420B8
:101F6000C2F30E02A0F844207047000010B50446EA
:101F70006848844208D10121C014FFF781FC002188
:101F8000E014FFF77DFCC4E0B4F1804F08D10121DB
:101F90000846FFF755FC00210120FFF751FCB8E08F
:101FA0005D48844208D101210220FFF749FC00214D
:101FB0000220FFF745FCACE05848844208D10121DB
:101FC0000420FFF73DFC00210420FFF739FCA0E0CE
:101FD0005348844208D101210820FFF731FC002139
:101FE0000820FFF72DFC94E04E48844208D10121DF
:101FF0001020FFF725FC00211020FFF721FC88E0CE
:102000004948844208D101212020FFF719FC002112
:102010002020FFF715FC7CE04448844208D10121D0
:102020004014FFF72DFC00216014FFF729FC70E03D
:102030003F48844209D10121C804FFF721FC002157
:102040004FF40020FFF71CFC63E03A48844209D1BA
:1020500001210805FFF714FC00214FF48010FFF761
:102060000FFC56E03448844209D101214805FFF7AE
:1020700007FC00214FF40010FFF702FC49E02F4855
:10208000844208D101214020FFF7DAFB00214020E3
:10209000FFF7D6FB3DE02A48844208D10121802089
:1020A000FFF7CEFB00218020FFF7CAFB31E0254877
:1020B000844208D101218015FFF7C2FB0021A01541
:1020C000FFF7BEFB25E02048844209D10121080426
:1020D000FFF7D6FB00214FF48030FFF7D1FB18E06B
:1020E0001A48844209D101214804FFF7C9FB0021A5
:1020F0004FF40030FFF7C4FB0BE01548844208D1D1
:1021000001218804FFF7BCFB00214FF48020FFF77A
:10211000B7FB10BD002C0140000400400008004047
:10212000000C00400010004000140040003401404A
:10213000004C014000500140005401400018004094
:10214000001C0040002000400040014000440140CD
:1021500000480140F0B50C4615461E4600210022FD
:1021600000230189028B038C4FF6F8773940214315
:102170004FF6FC473A4040F201173A434FF6DD77FD
:102180003B404FF6FF7707EA06172F433B43018199
:1021900002830384F0BD0146888C704730B5024647
:1021A000002000230024158A05EA0103958905EA29
:1021B000010413B10CB1012000E0002030BD00008B
:1021C00070B505460C46244885420ED0234885420A
:1021D0000BD0B5F1804F08D02148854205D0214869
:1021E000854202D02048854200D100E000BF20880F
:1021F00050B92389A28861882846FFF789FCE188C5
:10220000284600F0ABF925E0208804280AD123896C
:10221000A28861882846FFF7BBFCE188284600F0C9
:10222000A6F917E0208808280AD12389A2886188A6
:102230002846FFF7F9FCE188284600F0A5F909E0F7
:102240002389A28861882846FFF736FDE188284661
:1022500000F0A3F970BD0000002C014000340140E3
:102260000004004000080040000C004000210180F4
:102270004180012181800021C180018170471AB114
:1022800083890B43838102E083898B438381704779
:1022900070B5002400220023058C4FF6FE763540F1
:1022A0000584028C8388048B4FF68F752C40B51EF5
:1022B0002C400D882C43751E2A400D892A434D88D9
:1022C0002A43144DA8420BD0134DA84208D0134DF9
:1022D000A84205D0124DA84202D0124DA84213D1F7
:1022E0004FF6F7752A404D892A434FF6FB752A4071
:1022F0008D882A434FF6FF652B404FF6FF552B4044
:102300008D892B43CD892B4383800483CD8885869B
:10231000028470BD002C01400034014000400140A7
:1023200000440140004801400A460021018B4FF65D
:10233000F7731940114301837047000070B5002402
:1023400000220023058C4FF6EF7635400584028C81
:102350008388048B48F6FF752C404FF6FF452C40D0
:102360000D884FF6FF7606EA05252C434FF6DF75FC
:102370002A400D8906EA05152A434D8806EA051507
:102380002A43154DA84202D0144DA8421DD14FF644
:102390007F752A404D894FF6FF7606EA05152A43D8
:1023A0004FF6BF752A408D8806EA05152A434FF679
:1023B000FF352B404FF2FF752B408D8906EA8505CE
:1023C0002B43CD8906EA85052B4383800483CD8882
:1023D0000587028470BD0000002C014000340140DC
:1023E0000A460021018B4FF2FF7319404FF6FF732D
:1023F00003EA0223194301837047000070B50024EB
:1024000000220023058C4FF6FF6635400584028CC0
:102410008388848B4FF68F752C404FF6FC752C40CB
:102420000D882C434FF6FF552A400D894FF6FF7655
:1024300006EA05252A434D8806EA05252A43154D57
:10244000A84202D0144DA8421DD14FF2FF752A4078
:102450004D894FF6FF7606EA05252A434FF6FF35EC
:102460002A408D8806EA05252A434EF6FF752B4043
:102470004DF6FF752B408D8906EA05152B43CD8956
:1024800006EA05152B4383808483CD8885870284E3
:1024900070BD0000002C0140003401400A460021BC
:1024A000818B4FF6F7731940114381837047000009
:1024B00070B5002200230024058C4EF6FF763540CF
:1024C0000584038C8488828B48F6FF752A404FF67A
:1024D000FF452A400D884FF6FF7606EA05252A4378
:1024E0004DF6FF752B400D8906EA05352B434D88C7
:1024F00006EA05352B430B4DA84202D00A4DA842EF
:1025000008D14BF6FF752C408D894FF6FF7606EA11
:1025100085152C4384808283CD88A0F840500384A5
:1025200070BD0000002C0140003401400A4600212B
:10253000818B4FF2FF7319404FF6FF7303EA0223BA
:10254000194381837047818670470187704781876F
:102550007047A0F84010704781847047028B4FF697
:10256000F3731A400283028B0A4302837047028B83
:102570004FF2FF331A400283028B4FF6FF7303EAD8
:1025800001231A4302837047828B4FF6F3731A407C
:102590008283828B0A4382837047828B4FF2FF33A0
:1025A0001A408283828B4FF6FF7303EA01231A439A
:1025B00082837047002202881D4B98420ED01D4B2B
:1025C00098420BD0B0F1804F08D01B4B984205D0F9
:1025D0001A4B984202D01A4B984204D14FF68F738F
:1025E0001A404B881A43174B984207D0164B984213
:1025F00004D04FF6FF431A40CB881A4302808B88E1
:1026000083850B8803850A4B98420BD0094B98426F
:1026100008D00E4B984205D00D4B984202D00D4B7E
:10262000984201D10B7A0386012383827047000010
:10263000002C01400034014000040040000800402C
:10264000000C004000100040001400400040014019
:10265000004401400048014010B540F2255129488E
:1026600000F0C8F800284BD0264800F07FF9C4B22B
:102670002548008800F40040002841D12248008805
:1026800000F48040F8B10A2C05D000201E490880D3
:102690001E49087034E01C48007800F03F0008280C
:1026A00009D11948008840F40040174908800120EA
:1026B0001649087024E00020144908701248008868
:1026C000114908801CE00D2C06D10F48008840F409
:1026D00080400D49088013E00B480088C0F30D00CE
:1026E0000B490C5408480088401C074908800846DC
:1026F0000088C72804DD00200449087002490880CA
:1027000010BD00000044004074000020760000204E
:102710000C02002010B540F22551214800F06AF863
:1027200000283BD01E4800F021F91E4908701E48C1
:10273000008800F4004088BB1B48008800F48040FB
:1027400070B1084600782A2803D000201649088076
:1027500024E01548008840F40040134908801DE03B
:1027600010480078232806D10F48008840F48040A4
:102770000D49088012E00B4800780B490988C1F325
:102780000D010A4A505408480088401C0649088038
:1027900008460088C72801DD0020088010BD000021
:1027A00000480040C0000020C20000203803002084
:1027B00001F40072B2F5007F00D100BFCA4302806D
:1027C000704721B1828942F40052828104E08289FB
:1027D0004DF6FF731A408281704702460020B1F522
:1027E000007F00D100BF13880B400BB1012000E037
:1027F0000020704770B50246002400230025002009
:1028000040F66A16B14200D100BFC1F3421501F093
:102810001F03012606FA03F3012D02D196893340E6
:1028200006E0022D02D1168A334001E0968A334039
:102830000C12012606FA04F41688344013B10CB1C8
:10284000012000E0002070BDF0B503460024002602
:102850000025002040F66A17B94200D100BF184693
:10286000C1F3421401F01F06012707FA06F5012CF7
:1028700001D10C3004E0022C01D1103000E0143002
:102880001AB107682F43076002E00768AF4307608B
:10289000F0BD00002DE9F04786B005460E46002445
:1028A000A24600BFA1460027B08900B100BF2F4655
:1028B0002C8A4CF6FF700440F08804432C82AC89CB
:1028C0004EF6F3100440B0883189084371890843FB
:1028D0000443AC81AC8A4FF6FF400440B089044306
:1028E000AC8201A8FEF7DCFF1F48874202D1DDF869
:1028F00010A001E0DDF80CA0A88900F4004040B170
:102900000AEBCA0000EB0A1031684900B0FBF1F88D
:1029100007E00AEBCA0000EB0A1031688900B0FB3F
:10292000F1F86420B8FBF0F004012009642101FBF8
:102930001089A88900F4004040B1322000EBC900A2
:10294000B0FBF1F000F00700044308E0322000EB98
:1029500009106421B0FBF1F000F00F0004432C815A
:1029600006B0BDE8F08700000038014001468888C5
:10297000C0F308007047C1F308028280704700BFAF
:10298000FEE700002DE9F04104460D466648007858
:10299000012815D165496648006802F019FB064612
:1029A000644902F083F96449086064480168624838
:1029B000006802F07BF96249086000205A490870FB
:1029C000002C0CDD002D0ADA601902F0A1FA5D4935
:1029D0000860601B02F09CFA5B4908601DE0002C57
:1029E0000CDA002D0ADD601902F092FA55490860F0
:1029F000601B02F08DFA544908600EE0601902F085
:102A000087FA06464FF07C5102F0E2FA4D49086021
:102A1000601B02F07DFA4C490860494801684A4849
:102A2000006802F0D5FA484908600846016847483E
:102A3000006802F0C7F845490860434801684FF054
:102A40007C5002F0C5FA064640480168304602F064
:102A5000B9F83F49086008460668304601F0D6F9E3
:102A60003C4908603A480668304600F081FE3A4921
:102A70000860084601683348006802F0A9FA074672
:102A80002D480168384602F0A3FA0646334801682B
:102A9000304602F097F8314908602E48016829480D
:102AA000006802F095FA074623480168384602F0AC
:102AB0008FFA06462A480168304602F083F8284912
:102AC00008601D4801681F48006802F081FA064648
:102AD00024480168304602F07BFA23490860214807
:102AE00001681948006802F073FA204908600F492C
:102AF0001648006802F038FB07D21D4913480068E9
:102B000002F09EFB114908600CE01A490F4800686A
:102B100002F02AFA06D216490C48006802F052F870
:102B20000A490860BDE8F08104010020DC0F49403B
:102B3000D00000200000C344F8000020CC0000209A
:102B4000FC000020F0000020F4000020DC00002049
:102B500000010020E8000020EC000020D40000204C
:102B6000D8000020C8000020E0000020E400002081
:102B7000DC0FC940DC0F49C01249896941F00401EA
:102B8000104A91611049096821F470210E4A1160C0
:102B90001146096841F4403111600178012908D1DA
:102BA00009490831096841F48051074A0832116027
:102BB00007E005491031096841F48051024A10329A
:102BC000116070470010024004080140017801299B
:102BD00008D10A49096841F48051084A116000216E
:102BE000017009E005490839096841F48051034A38
:102BF000083A11600121017070470000140801407B
:102C0000017070472DE9F04F8BB00446894692461B
:102C10005146484602F014FB834601F0A7FF0546E3
:102C20000E462A463346D4E906B1584601F0D2FA98
:102C3000C4E90601D4E90AB35A462846314601F0F0
:102C4000ABFEC4E90801E168206802F02FF8834672
:102C500001F08CFFCDE90801D4E906B35A4601F032
:102C600065FE07D2E168206802F020F8834601F093
:102C70007DFF18E0E168606802F018F8834601F013
:102C800075FFCDE90801D4E906B35A4601F014FDF9
:102C900007D2E168606802F009F8834601F066FF38
:102CA00001E0D4E90601C4E906010021484602F02A
:102CB000BFF809D1002213462846314601F096FCA0
:102CC00002D10021A161E161206901F04FFFCDE94E
:102CD0000401D4E908B35A4601F02AFDCDE9080100
:102CE000E06801F043FFCDE90001D4E906B35A469C
:102CF00001F01EFDCDE90401A06801F037FF2A466E
:102D00003346CDE9000101F013FDCDE90201DDE913
:102D1000042301F05FFACDE90601DDE9082301F0A3
:102D200059FA07468846C4E90A56206801F01EFF92
:102D30003A464346CDE9080101F0F8FD05D2206886
:102D400001F014FF0BB0BDE8F08F606801F00EFFDA
:102D50003A464346CDE9080101F0AEFC03D2606873
:102D600001F004FFEEE738464146EBE730B5DDE918
:102D70000345016042608360C460056130BD0000AE
:102D80001FB50446207838B92178294A52F8210025
:102D90000121FEF765FD06E02178254A52F8210061
:102DA0000121FEF73DFD2178224A52F82100FFF76C
:102DB000DDF8A08880B2ADF80800208980B2ADF8B7
:102DC00004000020ADF80A00ADF806002178194A89
:102DD00052F8210001A9FFF7EDFB2178154A52F8BE
:102DE00021000121FFF7A0F82178124A52F82100B2
:102DF00001221146FFF743FA20780F49085C8DF84D
:102E0000000001208DF801002078801CC0B28DF8F0
:102E1000020001208DF803006846FEF7A1FC21782E
:102E2000044A52F821000121FFF784F81FBD000079
:102E30004C540008B800002054540008017042604F
:102E40008360704710B588B0044621783D4A52F837
:102E500021000121FEF704FDA08880B2ADF8180022
:102E6000208980B2ADF814000020ADF81A00ADF84A
:102E700016008DF81C002178334A52F8210005A96C
:102E8000FFF798FB6020ADF804000120ADF80600C4
:102E90000020ADF80A00ADF80C002078D8B92178F0
:102EA000294A52F8210001A9FFF7F2F92178264AB0
:102EB00052F821000821FFF737FA2178224A52F808
:102EC000210001A9FFF73AFA21781F4A52F82100A0
:102ED0000821FFF785FA207801281BD121781A4AAA
:102EE00052F8210001A9FFF789FA2178164A52F811
:102EF00021000821FFF7D2FA2178134A52F8210065
:102F000001A9FFF7D5FA21780F4A52F821000821CC
:102F1000FFF70CFB21780C4A52F821000121FEF743
:102F2000F7FF2178084A52F821000121FFF70EF837
:102F30002178054A52F821000121FEF7FBFF08B075
:102F400010BD0000205400088800002038B5044659
:102F500021781B4A52F8211022781A4B53F822206C
:102F600041EA02000121FEF77BFC2078164931F886
:102F70001000ADF8000018208DF8030003208DF834
:102F800002002178114A52F821006946FEF757FBEA
:102F900020780F4931F81000ADF8000018208DF8A6
:102FA000030003208DF8020021780A4A52F821001C
:102FB0006946FEF744FB2046FFF744FF38BD00009A
:102FC0001054000818540008285400087800002005
:102FD0002C5400088000002070B504460D4620786F
:102FE00028BB002D11DD2178254A52F821004FF42D
:102FF000E151FFF7A8FAC5F5E15291B22278204BD2
:1030000053F82200FFF7A1FA39E005F5E15291B239
:1030100022781B4B53F82200FFF795FA2178184AC3
:1030200052F821004FF4E151FFF78FFA27E02078A2
:10303000012824D1002D11DDC5F5E15291B222788D
:103040000F4B53F82200FFF782FA21780C4A52F80E
:1030500021004FF4E151FFF77CFA10E02178084A93
:1030600052F821004FF4E151FFF771FA05F5E152F2
:1030700091B22278024B53F82200FFF76AFA70BD32
:1030800088000020017042608360704710B592B0E4
:10309000044601214FF40470FEF7E2FB01210846CB
:1030A000FEF7AEFB0220ADF8440000208DF847008B
:1030B00011A93548FEF7C3FA3448FEF7FBF9344846
:1030C000069004F10C000790002008900120099060
:1030D00000200A9080200B9040000C9080000D9002
:1030E00020200E9000020F900020109006A9274883
:1030F000FEF786FA01212548FEF7CFF9002001905E
:1031000001208DF808008DF809004FF4602003902D
:103110000020049001208DF8140001A91C484C38AF
:10312000FEF720F94FF44040FEF75EFB0523012235
:103130000B2117484C38FEF73DF9012114484C3853
:10314000FEF7F1F8012112484C38FEF7E1F810487B
:103150004C38FEF78BF900BF0D484C38FEF7F8F8F5
:103160000028F9D10A484C38FEF790F900BF08480A
:103170004C38FEF7E3F80028F9D1012104484C3817
:10318000FEF779F912B010BD0010014008000240AE
:103190004C2401402DE9FC5F82464FF0000B234890
:1031A000006832280DDABAF80C0021491F4A12686B
:1031B00021F812001D480068401C1C490860BDE849
:1031C000FC9F0020194908600AE01948174909685E
:1031D00030F81100834415480068401C134908600A
:1031E000124800683228F0DB3220BBFBF0FB584667
:1031F00001F04FFA06460F4A0F4B01F099FA0446C8
:103200004FF033320D4B01F093FA804600220C4B05
:1032100001F094F8CDE9000100F0AAFFCAF810000F
:1032200000200249086000BFC9E70000B400002088
:10323000D4020020A4703D0AD7A30A4033332640AD
:1032400000FEAF400146086970470160426083603C
:103250007047000010B588B00446217A4E4A52F8F3
:1032600021000121FEF7FCFA207A4C4931F81000C8
:10327000217A4B4A32F811100843ADF81C000420A3
:103280008DF81F0003208DF81E00217A454A52F860
:10329000210007A9FEF7D3F9217A434A52F8210009
:1032A0000121FEF7BDFA217A404A52F82100FEF7CB
:1032B0005DFE217A3D4A52F8210004A9FFF77AF910
:1032C000A08980B2ADF81400208A80B2ADF8100059
:1032D0000020ADF81600ADF81200217A334A52F8FA
:1032E000210004A9FFF766F9207A48B9217A2F4A0C
:1032F00052F82100022300220321FEF72BFF08E0F1
:10330000217A2A4A52F82100002302220321FEF7E3
:1033100021FF01A8FEF7AAFF0620ADF80C0002204D
:10332000ADF80600217A214A52F8210001A9FEF7E2
:1033300047FF217A1D4A52F821000121FEF7F4FDD2
:10334000217A1A4A52F8210001221146FEF797FF0E
:10335000217A164A52F821000021FFF7FDF8207A61
:103360001349085C8DF8000000208DF80100207AD8
:10337000801CC0B28DF8020001208DF80300684661
:10338000FEF7EEF9217A094A52F821000121FEF7F1
:10339000D1FD08B010BD00003854000830540008BA
:1033A000345400089C00002040540008A400002071
:1033B0004854000870B504460025207A50B9217A97
:1033C000134A52F82100FEF7E6FE1249098800EB85
:1033D000014509E0217A0E4A52F82100FEF7DBFE92
:1033E0000D49098800EB01452068281A60602560B6
:1033F000207A20B96168A0690844A06106E0207ABB
:10340000012803D16168A0690844A061A06970BD6A
:10341000A400002094000020980000202DE9F04F27
:1034200087B004462046FFF7C5FF814600F06CFADE
:103430008246E069AAEB000B584601F02AF90546DE
:103440000022134B00F07AFFCDE90401216AA9EBB9
:10345000010001F007F9CDE90201C4F81CA0C4F88D
:103460002090606901F015F907463A460B46DDE900
:10347000020100F063FF0546DDE9042300F05EFF72
:10348000CDE9000100F074FE07B0BDE8F08F000048
:10349000004CED4030B5039C0172C2600361446191
:1034A000002585610560456030BD014600BF21F003
:1034B00000407047490050EAC12018BF04204A0D5F
:1034C00018BF40F0010040F2FF72B2EB515F08BF3D
:1034D00040F00200012808BF0520704741000802A3
:1034E00018BF04200A0E18BF40F001004FF07F42C1
:1034F00032EA010108BF40F00200012808BF0520A0
:103500007047012101F045BF0021084601F0CEBB04
:103510006FF05E01080701F03CBF00002DE9F04D9F
:103520000D4614464FF07F41B1EB440F9EBF4FF064
:10353000FF312960BDE8F08D4FF0004040EA0421E2
:10354000C4F3C750783810F01F024A4B4FEA601C92
:10355000C2F120067B44C4F3C750A0F178004FEAC3
:10356000601003EB800053F82C3008BFD0E901C68F
:1035700012D0D0F804C093402CFA06F73B4387687A
:103580000CFA02FC27FA06F8C06807FA02F2F040CB
:103590004CEA080C42EA0006A3FB0132ACFB01C076
:1035A000A6FB016101EB0C068E4234BF4FF0010C0B
:1035B0004FF0000CC1186144BCF1000F02D08142F1
:1035C00002D903E0814201D2012000E00020104432
:1035D00000F120024FEA92188006CA0C40EA4230FD
:1035E0004F03C5F8008001F093FC8246384601F095
:1035F000A7FC6FF0120101F0CCFE0746304601F047
:103600009FFC6FF0250101F0C4FE83463946504609
:1036100001F0D8FA594601F0D5FA00F500666FF3CB
:103620000B065146304601F00BFE394601F008FE0C
:10363000594601F0FBFD104901F0CAFC07460F494D
:10364000304601F0C5FC394601F0BCFA07460C498A
:10365000304601F0BDFC394601F0B4FA14F0004FD9
:1036600008BFBDE8F08DC8F1805180F000402960AE
:10367000BDE8F08D001F0000DB0FC92F22AAFD2935
:103680000000C92F1CB501212748FFF7B9FA002314
:1036900041F61F4219462548FFF7F4FC002341F686
:1036A0001F4201212248FFF7EDFC00202149224B57
:1036B000224ACDE9001022492248FFF757FB00209B
:1036C0004FF083411C4B1D4ACDE900101C491E4898
:1036D000FFF74CFB4FF4C36000234FF6FF7219460F
:1036E00000901A48FFF7D6FE4FF4C36000234FF650
:1036F000FF72012100901648FFF7CCFE154B164AC9
:1037000016491748FFF7A1FD41F61F433222002159
:103710001448FFF793FB41F61F434FF4FA7201215F
:103720001148FFF78BFB1CBD580000202001002032
:103730002C010020000020410000E04000F8E0459E
:1037400000F8E0C538010020680100209801002041
:10375000BC010020666646419A9929410000C84193
:10376000E0010020F40100200002002000BF7047AB
:103770002DE9F843044602464F486946B0EB420F34
:1037800009D94FF0E640B0EB420F94BF00204FF054
:10379000FF30009030E0494B22F00040834271D965
:1037A0004749204601F014FC01F010FD804601F06D
:1037B00073FB00F0030000904249404601F008FC12
:1037C00005464149404601F003FC06463F49404654
:1037D00001F0FEFB07463E49404601F0F9FB214659
:1037E00001F024FD394601F02BFD314601F028FDA2
:1037F000294601F025FD04462546009C002C45DBAA
:10380000294614F0010F08461CD001F0E1FB0646E2
:10381000304901F0DDFB304901F008FD314601F08F
:10382000D7FB2E4901F0CEF9314601F0D1FB2946F4
:1038300001F0CEFB294601F0C5F914F0020F1CD0AF
:10384000BDE8F88301F0C4FB0546254901F0C0FB43
:10385000244901F0B7F9294601F0BAFB224901F0E9
:10386000B1F9294601F0B4FB4FF07E5101F0AAF9FD
:1038700014F0020F08BFBDE8F88380F00040BDE8F7
:10388000F883FFE71046FFF749FEB4E76800B0F1A0
:103890007F4F3CBF4FF07E50BDE8F88307D14FF01B
:1038A0000100FCF79FFDBDE8F843FFF72DBE284659
:1038B000BDE8F843FFF725BEB61F927E490E494684
:1038C00083F9223F1A61342C0020A23300A0FD3975
:1038D0000000C93F336D4C39DA82083CA0AA2ABEE9
:1038E000B93AB2BACA9F2A3DDDFFFFBE00BF054A02
:1038F000128802F04002002AF9D0C2B2014B1B1D0F
:103900001A80704700480040014800687047000076
:10391000AC00002030B5002015490860154800684B
:103920004FF47A72B0FBF2F1B1F1807F00D31DE069
:1039300021F07F40401E4FF0E022506150170F22CF
:10394000002807DA13071D0E0B4B00F00F04241F8D
:103950001D5503E013071C0E084B1C5400BF00202C
:103960004FF0E02290610720106100BF30BD0000E1
:10397000AC0000200000002018ED00E000E400E0B2
:103980002DE9F0410024D548806940F01000D3496A
:103990008861D348006820F00F00D14908600846CC
:1039A000006840F0080008600846C06840F0010068
:1039B000C8604FF4A060FDF70BFFFFF7ABFFC948ED
:1039C000FFF7DAF8C848FFF761FBC848FFF742FC89
:1039D000C748FFF73FFCC748FFF7B8FAC648FFF7EC
:1039E000B5FA4FF4E13000F057FB4FF416512420A4
:1039F00000F0D0FAC148FFF7C3F9C148FFF7C0F99A
:103A00006BE1C0480088B0F5C87F1BDD41F61F415F
:103A1000BD48FEF798FD41F61F41BB48FEF795FDF6
:103A200041F61F41B848FEF792FD41F61F41B648E6
:103A3000FEF78FFD0020B5490860B54908600120F8
:103A4000BDE8F081B3480078012808D1A74A516841
:103A5000A74A5068FEF796FF0020AE490870AE48AE
:103A6000007801287ED1AD48006801F07FF8054656
:103A70000B462146621C94B22A46A9A0FCF7DAFB49
:103A8000AD48006801F072F805460B462146621CFD
:103A900094B22A46A9A0FCF7CDFBAE48006801F01D
:103AA00065F805460B462146621C94B22A46AAA038
:103AB000FCF7C0FB8C48FFF76DFB8B48FFF7C2FBA0
:103AC000074601F053F80546A94AAA4B00F0F4FD59
:103AD00002D28448FFF77AF897480068A649086040
:103AE0009C480068A5490860A5480068A549086089
:103AF000A5480068A5490860A5480068A549086070
:103B0000002018E09C49095CA34A11549B490A5CB7
:103B1000A14B011D5A549B490A5C00F108015A54FB
:103B20009A490A5C00F10C015A549A490A5C00F166
:103B300010015A54401C0428E4DB0A2096490875F9
:103B4000002512E040219548FEF732FE9248415D83
:103B50009248FEF710FF00BF40219048FEF73DFE5F
:103B6000002800E006E0F7D06D1C152DEADB0020F0
:103B7000694908708A48008800F40040C8B10024F0
:103B80000AE08848005D884908558649201D085C80
:103B900086490855601C84B2042CF2DB8348006817
:103BA0005A490860804800685949086000207C49EB
:103BB00008807F48008800F40040002873D07C48CB
:103BC000057800207B4948557BA17A48FCF7AEFB7D
:103BD00048B900204D4908607A48007801F0B0F9F2
:103BE0004B49086075E078A17248FCF79FFB48B923
:103BF0007448007801F0A4F9444908600020444961
:103C0000086066E073A16B48FCF790FB50B96D4803
:103C10000078404201F07CF93C49086000203C49B2
:103C2000086056E06EA16348FCF780FB50B90020A5
:103C30003649086063480078404201F069F9344928
:103C4000086046E069A15B48FCF770FB60B95D481D
:103C5000007801F075F92D4908605A48007801F0A4
:103C60006FF92B49086034E062A15248FCF75EFB13
:103C700070B954480078404201F04AF9234908607D
:103C800050480078404201F043F92149086020E0A3
:103C900059A14848FCF74AFB30B900201B4908608D
:103CA0001B49086015E018E055A14248FCF73EFBAF
:103CB00028B944480078801E4249087009E052A1A2
:103CC0003C48FCF733FB20B93E480078801C3D4956
:103CD000087000203649088000BF92E600100240BC
:103CE0000010014058000020E0010020BC0100202D
:103CF000980100202C01002020010020F401002068
:103D0000000200201600002000340140480000207E
:103D10004C000020150000201400002000010020AD
:103D2000675F666361725F6F7269656E74696F6EFB
:103D30002025643A25660A00D4000020675F66707B
:103D40006F736974696F6E5F782025643A25660A1F
:103D500000000000D8000020675F66706F73697410
:103D6000696F6E5F792025643A25660A00000000BD
:103D7000CDCCCCCCCCCC2640280000202C00002080
:103D8000DC00002030000020E00000203400002093
:103D9000E40000203800002008010020004400401A
:103DA000740000200C0200202400002020000020CD
:103DB000C2000020380300207169616E5F6C656687
:103DC00074000000180000207169616E5F726967FD
:103DD00068740000686F755F72696768740000003E
:103DE000686F755F6C656674000000007169616ED4
:103DF00000000000686F750074696E6700000000C5
:103E00006A69616E000000006A6961002DE9F8438B
:103E10000446024652486946B0EB420F09D94FF0BA
:103E2000E640B0EB420F94BF00204FF0FF3000900F
:103E300030E04C4B22F00040834271D94A49204681
:103E400001F0C6F801F0C2F9804601F025F800F053
:103E5000030000904549404601F0BAF80546444940
:103E6000404601F0B5F806464249404601F0B0F838
:103E700007464149404601F0ABF8214601F0D6F92A
:103E8000394601F0DDF9314601F0DAF9294601F051
:103E9000D7F904462546009C002C45DB294614F042
:103EA000010F08461ED001F093F80546334901F092
:103EB0008FF8334900F086FE294601F089F8314930
:103EC00000F080FE294601F083F84FF07E5100F0AB
:103ED00079FE14F0020F08BFBDE8F88380F00040BF
:103EE000BDE8F88301F074F80646274901F070F840
:103EF000264901F09BF9314601F06AF8244900F0A7
:103F000061FE314601F064F8294601F061F8294666
:103F100000F058FE14F0020FE0D1BDE8F883FFE78F
:103F20001046FFF7FBFAB4E76800B0F17F4F09D203
:103F30002846FFF7D3FA042808BFFFF7E9FA284616
:103F4000BDE8F88306D10120FCF74CFABDE8F84340
:103F5000FFF7DABA2846BDE8F843FFF7D2BA000007
:103F6000B61F927E490E494683F9223F1A61342CCE
:103F70000020A23300A0FD390000C93FB93AB2BA0F
:103F8000CA9F2A3DDDFFFFBE336D4C39DA82083C03
:103F9000A0AA2ABE2DE9F84F05460E46300100F0D2
:103FA000CFFF8146384905FB01F000F0C9FF82468A
:103FB000494600F07BFE0746384600F089FF84B290
:103FC000204600F0BDFF8346394601F02FF98246B6
:103FD0004FF0834100F0FCFF814600F079FF8046FE
:103FE0004FF6FF7000EA041404EB080084B227487F
:103FF000806940F00800254988610846C06940F49E
:104000008020C8612248006820F47F402049086071
:104010000846006840F40B4008601D4808300068FE
:1040200040F480601A49083108601848006940F47B
:104030008020164908610846006920F48020086144
:1040400014480480001D008842F20C010843114905
:10405000091D08800846008840F4807008800846E2
:10406000008840F02000088027208DF80000032001
:104070008DF801008DF8020001208DF803006846DC
:10408000FDF76EFBBDE8F88F40420F0000100240C4
:10409000040C01400848004010B586B004460121D8
:1040A0000420FDF7DDFB01214804FDF7B9FB0420E6
:1040B000ADF8140003208DF8160018208DF81700B5
:1040C00005A91E48FDF7BBFA0820ADF8140004202E
:1040D0008DF8170005A91948FDF7B1FA26208DF8CB
:1040E000000003208DF801008DF8020001208DF8FA
:1040F00003006846FDF734FB01940020ADF808008A
:10410000ADF80A00ADF80C00ADF810000C20ADF8C9
:104110000E0001A90A48FEF7BDFB012240F225511D
:104120000748FEF791FB01210548FEF74AFB4021B5
:104130000348FEF73DFB06B010BD0000000801403B
:104140000044004010B500290AD00878002807D0A4
:1041500005487844FCF7EAF8002801D0002010BD9B
:104160000248784410BD0000DA130000D2130000AA
:1041700021F00042A2F16052B2F5801F01F000432D
:1041800028BFD2F17F6C0BD95FEA001C43EAC20260
:1041900042EB507018BF704728BF20F001007047F5
:1041A000B2F5801FBCBF184670474FEA410C1CF5A2
:1041B000001F02D2084600F0D2BF70B500F062FBCB
:1041C00000000089FFF7F6BF4FF00040A0F5800027
:1041D0007047000010B591EA030F48BF83F0004319
:1041E00000F1E283841A71EB030C05D2121943EB40
:1041F0000C03001B61EB0C01DFF824E14FEA1154C2
:10420000A4EB135C1EEA430F18BF9EEA445F73D011
:1042100023EA0E03DCF1200E21EA045143F480135B
:1042200032D322FA0CFE10EB0E0023FA0CFE41EB07
:104230000E01CCF1200E03FA0EFE10EB0E0051F130
:104240000001B1F5801FCCF1200E32D201EB0451F8
:1042500012FA0EF2BDE8104058BF7047401C38BF3C
:104260005FEA420218BF7047002814BF20F0010027
:1042700041F100014FEA410313F5001F38BF7047B9
:10428000A1F1C04100F04CBB012A43EB0302ACF1A9
:10429000200CDCF11F0E32BF4FF0000E23FA0CF39E
:1042A00010EB030041EB0451B4EB115FD0D0A1EB54
:1042B000045101F5801149085FEA300001EB045117
:1042C0000ED350F1000038BF12FA0EFE08D1BDE83F
:1042D0001040C9E7401C38BF5FEA4202CAD1C3E7B9
:1042E000BDE810404FEA410313F5001F38BF704787
:1042F000A1F1C04100F014BB9EEA445F08D011EA6E
:104300005E0FBDE8104004BF01F00041002070477F
:10431000BDE8104070B500F0B5FA00BF64FBBE3ECA
:104320000000E0FF491058BFC1F140415B1058BF89
:10433000C3F140438B42EFF3008070472DE9C04149
:1043400030B4DFF8A0C23CEA111418BF3CEA1314E1
:1043500000F0EC8081EA03051CEA111444EAD574EC
:1043600018BF1CEA131500F0C780A4EB05044FF03A
:10437000004545EAC12145EAC32341EA505143EAD9
:10438000525304F17F74994204F500344FEAC0207F
:104390004FEAC22208BF904200F09C804FEA1365AA
:1043A0000FF24016765D4FEA134506FB05F7C7F19D
:1043B000807706FB07F74FEAD737A7FB03687642FB
:1043C000C8F58038A7FB06CE38BFA8F1010807FB67
:1043D00008E64FF0000EA6FB028CE6FB03CEDCF1F4
:1043E000000CCEF1004E38BFAEF1010EA6FB0C580A
:1043F0004FF000074FF00005E6FB0E87A1FB08C653
:10440000A0FB07CE16EB0E0645F10005E1FB0765A4
:1044100015F1E04E7EBFA4F580345FEA46066D419B
:1044200016F1800745F100054FEA17274FEA0666A7
:1044300047EA0567A6F1DE46B6F1805F4FEA15252B
:104440001FD9384624F0010C05EBC471BCF1FE6F96
:1044500001EB0C1102D8F0BCBDE8008124425CBF26
:1044600001F5801E9EEAC47F02D4F0BCBDE8008145
:10447000244238D4F0BCA1F1C041BDE8004100F0B5
:104480004FBA4FEAD22242EA43524FEAD323A7FB64
:1044900002864FEAD02040EA415007FB03661EEA3D
:1044A0000E0F4FEAD12105FB026658BFA6EB00565E
:1044B000B6EB00564FEA520E4EEAC37E18EB0E0ED4
:1044C00056EB530EBDD518EB02085E417F1C55F12B
:1044D0000005B6E74FF480154FF000074FF00006D7
:1044E0004FF00008ADE7F0BC4FF0000001F1C04113
:1044F00001F00041BDE8008111EA0C1F0CEA131520
:1045000000D00CE013EA0C1F00F025804FF00000F3
:10451000F0BC81EA030101F00041BDE80081F0BC7C
:10452000BDE8004181EA030100F0FAB9F0BCBDE842
:10453000004170B500F0A6F9097EFC3E00F007B816
:1045400081EA03014FF0000001F00041704781EA69
:10455000030100F0E5B9F0BCBDE800414FF00000F8
:1045600021497047FFFDFBF9F7F5F4F2F0EEEDEBB2
:10457000E9E8E6E4E3E1E0DEDDDBDAD8D7D5D4D361
:10458000D1D0CFCDCCCBCAC8C7C6C5C4C2C1C0BFAD
:10459000BEBDBCBBBAB9B8B7B6B5B4B3B2B1B0AFB3
:1045A000AEADACABAAA9A8A8A7A6A5A4A3A3A2A197
:1045B000A09F9F9E9D9C9C9B9A9999989797969552
:1045C00095949393929191908F8F8E8E8D8C8C8BEE
:1045D0008B8A898988888787868585848483838276
:1045E000828181800000FF070000F87F51EA030C00
:1045F00017D41CF5801F58BFBCF5801F00F1068042
:10460000994218BF704708BF9042704707D711F50D
:10461000801F58BF13F5801F19D4994270478942F3
:1046200070471CF5801F08D5BCF5801FF7D58B425D
:1046300018BF704708BF824270474FF4001C1CEB44
:10464000410F38BF1CEB430F01D28B42704770B54E
:1046500000F018F9922449004FF000514FF08053B8
:10466000FFF760BE10F0004248BF4042B0FA80F34E
:1046700010FA03F10AD0C3F11D0303F580634FEA7A
:10468000415002EB035202EBD12170474FF0000082
:104690007047B0FA80F310FA03F10AD0C3F11D039A
:1046A00003F580634FEA41504FEA035202EBD121F8
:1046B00070474FF00000704751EA030C17D41CF507
:1046C000801F58BFBCF5801F00F10680994218BFBB
:1046D000704708BF9042704707D711F5801F58BF39
:1046E00013F5801F19D499427047894270471CF511
:1046F000801F08D5BCF5801FF7D58B4218BF7047C7
:1047000008BF824270474FF4001C1CEB410F38BFBA
:104710001CEB430F01D28B42704770B500F0B2F82A
:10472000922449004FF000514FF08053FFF7FABD3B
:10473000DFF848C170B51CEA111E1EBF1CEA131534
:104740009EEA0C0F95EA0C0F00F06F8081EA0304DB
:1047500023EA4C134EEAD47E21EA4C1141F4801135
:1047600043F48013AE44A1FB024CA0FB0365AEF101
:104770007F7E361955EB0C05A1FB034C4CF1000371
:10478000A0FB021C16EB0C06654153F10003094225
:1047900018BF46F0010613F4007F0BD14FEA033136
:1047A0004FEA0530340341EA155140EA16506FF0E4
:1047B00003020AE04FEAC3214FEAC520F40241EAAE
:1047C000555140EA56506FF0020202EB2E4201EBC7
:1047D000025585EACE710AD05FEA440C18BF24F076
:1047E000004450F1000041F1000120EAD47040F291
:1047F000FE7C624500D270BDA84214BF4FF08044D9
:104800004FF04044002E08BF0024BEF1806FA8BFC7
:10481000A1F1C041BDE8704080F282804FF00000FD
:1048200001F1C04101F0004170479EEA0C0F0CEA13
:10483000131518BF95EA0C0F06D04FF0000081EA5F
:10484000030E0EF0004170BD00F01CF88900013E1F
:1048500000F007B800F009B84FEA430C5FEA5C5C6F
:1048600008D081EA030100F05BB84FEA410C5FEA2F
:104870005C5CF6D14FF00000014970470000FF0773
:104880000000F87F0EF1020E2EF0030E5EF8046BAE
:10489000364205D4012A43EB030515F5001F12D853
:1048A000012841EB010C1CF5001F0CD80ED14FEA7A
:1048B000D17C15F5001F0CEB4C0C0CF1020C08BF61
:1048C0004CEBD37C04E04FF0080C01E04FEAD37CC2
:1048D0000CEB4C0526FA05F606F00706B6F1040CBB
:1048E00006D20EEB860CBDE870404CF0010C604720
:1048F000DFE80CF0090B02024FF000414FF000001E
:10490000A1F5002170BD19461046012851EB0104A4
:1049100018BFD4F5001484BF002001F0004170BD21
:104920000808A0F500114FEA3101704753EA010C65
:1049300017D41CF5801F58BFBCF5801F00F10680FE
:104940008B4218BF704708BF8242704707D713F5E4
:10495000801F58BF11F5801F19D48B4270479B42AE
:1049600070471CF5801F08D5BCF5801FF7D599420C
:1049700018BF704708BF904270474FF4001C1CEBF3
:10498000430F38BF1CEB410F01D2994270470FB45F
:104990000CBC03BCFFF7C1BE10B591EA030F48BFC2
:1049A00083F000433FF51EAC841A71EB030C07D271
:1049B00012198CF0004C43EB0C03001B61EB0C0153
:1049C000DFF8A4E14FEA1154A4EB135C1EEA430F95
:1049D00018BF9EEA445F00F0B08023EA6E035242A3
:1049E00021EA0451C3EB6E0338BF5B1EDCF1200EDD
:1049F00025D322FA0CFE10EB0E0043FA0CFE41EB1D
:104A00000E01CCF1200E03FA0EFE10EB0E0051F158
:104A10000001CCF1200E29D412FA0EF201EB045160
:104A2000BDE8104058BF7047401C1CBFB2F1004F9A
:104A3000704700280CBF491C20F00100704712EBA2
:104A4000020E43EB030218BF4FF0010E4EEA420282
:104A5000ACF1200CDCF11E0E54D943FA0CFE10EB25
:104A60000E0051F1FF31CCF11E0ED5D50EF1010E25
:104A700012FA0EFE404141EB010101EB445C5FEA9A
:104A80005C5C10D910EBDE7001EB045138BFBEF155
:104A9000004FBDE8104018BF704700280CBF491CEC
:104AA00020F00100704730D24FEAD42C11F50011EC
:104AB00024F400641BD0B1FA81F20B3AA41AA41EAC
:104AC000D2F12003914030FA03F31943904001EBF7
:104AD000CC71002C01EB0451BDE81040A8BF704719
:104AE00001F1C0414FF0000001F000417047B0FA01
:104AF00080F310FA03F100D110BDE41A173C480509
:104B0000C90AE4E701EB045110BD491001EB04515F
:104B1000BDE810404FEA300002E04FF0000170475E
:104B20004A0008BF0042F8D0B2F5001F28BF704706
:104B300001F000414FF0000070479EEA445F07D04B
:104B400011EA5E0FBDE8104004BF0021002070474D
:104B5000BDE8104070B5FFF795FE00BF40DFF63EA0
:104B600083F00041104670470000E0FF43004FEA29
:104B7000D30C4FEA3C0C43401FBF40070CF160517F
:104B800013F0FE4F70471CF0006F03D100200CF0B3
:104B9000004170470CF0004343EA507010B540EA02
:104BA000CC0000F096FA00BF000000924FEA00012E
:104BB000FFF7B6BE4FF000414FF00000A1F5002115
:104BC0007047000090EA010F48BF81F0004100F1FA
:104BD0003E83421A3CBF801A89184FEAD0524FF0E8
:104BE0007F4C1CEA410FA2EBD15318BF9CEA026F25
:104BF00000F03B804FF0004C4CEA00204CEA0121D1
:104C000021FA03FC10EB0C0C1ED202F1FF325FEA1A
:104C10001C2040EBC25038BF70471CF07F0F4FEA9A
:104C2000400C18BFBCF17F4F38BF7047C3F1200361
:104C3000994008BF20F00100BCF17F4F38BF70479A
:104C4000A0F1C04000F08BBA4FEA3C00000A40EBF4
:104C5000C25028BF1CF0FF0F4FEA400CE6D018BF2F
:104C6000BCF17F4F38BF7047EAE79CEA026F05D07E
:104C700010EA5C0F08BF00F00040704710B500F06C
:104C800028FA00BF64FBBE3E014800F050BB00BFE5
:104C90000000C07F401058BFC0F14040491058BFCD
:104CA000C1F140418142EFF3008070474FF47F0C27
:104CB0001CEAD0121EBF1CEAD11392EA0C0F93EA31
:104CC0000C0F00F0858090EA010F48BF42F480721B
:104CD00040F4000C41F400002CF07F4120F07F40B4
:104CE00000B58142A2EB03020FF2081CACEB504E60
:104CF000C0F100009EF800E04FEA4E0E00FB0EFCF3
:104D000038BF49004FEA2C1C02F5FA020CFB0EF3E7
:104D10004FEACE1E4FEA112C4FEAC1210EEB635E23
:104D200042EB22420EFB0CFC4FEA1C5300FB03112A
:104D30004FEA112C4FEA01310EFB0CFC4FEADC4C20
:104D400000FB0C11C14228BF09184CEB03335DF87E
:104D500004EB10EB410143EBC250B2F57C0F38BFBE
:104D6000704729D512F0F00F1CBF00F1C04000F0D1
:104D700000407047008182838485868788898B8C78
:104D80008D8E8F919293959697999A9C9D9FA0A2B4
:104D9000A3A5A7A8AAACAEB0B2B3B5B7B9BCBEC004
:104DA000C2C5C7C9CCCED1D4D7D9DCDFE2E6E9ECA5
:104DB000F0F3F7FAFE0000004FEA400C0CF1807CA3
:104DC000BCF17E4F28BF7047B0F1C04000F0C7B9BA
:104DD00090EA010F0CEAD11348BF42F48072624599
:104DE00038BF634507D213F47F0F16D080EA010065
:104DF00000F00040704710B500F06BF9097EFC3EF2
:104E000000F005B880EA010000F00040704780EA39
:104E1000010000F0004000F0A2B912F47F0F04BFBF
:104E20000248704780EA010000F099B90000C07F95
:104E300050EA010C00F113801CF5000F58BFBCF5BF
:104E4000000F01D48842704707D710F5000F58BFF4
:104E500011F5000F15D488427047894270471CF540
:104E6000000F04D5BCF5000FF7D5814270474FF015
:104E7000807C1CEB400F38BF1CEB410F01D28142FC
:104E8000704710B500F025F9922449004FF000500A
:104E90004FF08051FFF7FEBE41000B0ED3F19E0292
:104EA00008D950F400034FEA032323FA02F048BF65
:104EB0004042704710B500F00CF900BF49922480C1
:104EC000002070476FF0004282EA20007047000027
:104ED000C10DD1F19E0206DB4FEA002343F00043EF
:104EE00023FA02F07047004207D54FEA4001B1F1C2
:104EF000FE4F02D24FF00000704710B500F0E9F805
:104F000049922480002070476FEA2000704700001B
:104F100010F0004148BF4042B0FA80F310FA03F2AB
:104F2000C3F19D030BD051EAC35101EB122053068C
:104F300038BF704700F1010008BF20F00100704742
:104F4000B0FA80F310FA03F2C3F19D030AD0D90539
:104F500001EB1220530638BF704700F1010008BF73
:104F600020F001007047000050EA010C00F11380AE
:104F70001CF5000F58BFBCF5000F01D488427047E4
:104F800007D710F5000F58BF11F5000F15D4884250
:104F90007047894270471CF5000F04D5BCF5000F1F
:104FA000F7D5814270474FF0807C1CEB400F38BF33
:104FB0001CEB410F01D28142704710B500F089F817
:104FC000922449004FF000504FF08051FFF762BE2D
:104FD0004FF47F0C1CEAD0121EBF1CEAD11392EAD8
:104FE0000C0F93EA0C0F00F0478090EA010F48BFC6
:104FF00042F480724FF0004C4CEA00204CEA012150
:1050000002EB0302A0FB0113A2F50002002918BF66
:1050100043F001035B0028BF4FEA330342EB224217
:105020005FEA132C4CEBC2502EBFBCEB436FB2F5C2
:105030007C0F70474FEA036CBCF1004F08BF20F0B3
:105040000100B2F57C0F38BF70470BD582F0FF022C
:1050500012F5803FC8BF704700F1C040D8BF00F0D4
:105060000040704700F5000C5FEA4C0C48BF7047E9
:10507000B0F1C04000F073B890EA010F0CEAD11310
:1050800048BF42F48072624538BF634504D280EA6B
:10509000010000F00040704710B500F01AF800BFA2
:1050A0008900013E00F007B800F009B85FEA410C42
:1050B0005FEA1C6C08D080EA010000F050B85FEA9B
:1050C000400C5FEA1C6CF6D14FF00040A0F5800068
:1050D00070470EF1020E2EF0030E5EF8044B2442D0
:1050E00004D44FEA4102B2F17F4F11D84FEA400396
:1050F000B3F17F4F0CD80ED14FEAD07CB2F17F4F85
:105100000CEB4C0C0CF1020C08BF4CEBD17C04E016
:105110004FF0080C01E04FEAD17C0CEB4C0324FA71
:1051200003F404F00704B4F1040C06D20EEB840C73
:10513000BDE810404CF0010C6047DFE80CF00708B8
:1051400002024FF00040A0F5800010BD084642006A
:1051500018BFD2F1807288BF00F0004010BDFF215F
:1051600041EAD050C005704751EA000C00F11380AD
:105170001CF5000F58BFBCF5000F01D481427047E9
:1051800007D711F5000F58BF10F5000F15D4814255
:105190007047894270471CF5000F04D5BCF5000F1D
:1051A000F7D5884270474FF0807C1CEB410F38BF29
:1051B0001CEB400F01D28842704780EA010081EA6F
:1051C000000180EA0100FFF7F8BE00005FEA400C32
:1051D0005FEA1C6CBCF17F0314D4D3F1170240F3D7
:1051E0001C804FF0010C0CFA02FCACF101030340EF
:1051F000B3EB5C0220EA030008BF10EA0C0F88BF83
:1052000060447047B3F1FF3F28BF5FEA002C00F015
:10521000004088BF40F07E507047BCF1FF0FB8BF20
:10522000704710B5FFF755FF40DBB6BE80F0004079
:1052300090EA010F7FF5CDAC81F0004100F007B896
:1052400090EA010F48BF81F000413FF5C2AC421A1D
:1052500004D882F00042A0EB020011444FEAD05281
:105260004FF07F4C1CEA410FA2EBD15318BF9CEAD0
:10527000026F4AD04FF0004C4CEA00204CEA01216A
:1052800021FA03FCB0EB0C0C0FD412F0FE0F36D059
:105290005FEA4C001DD5001240EBC25038BF70478A
:1052A0001CF03F0F18BF70470BE0A2F101025FEA4C
:1052B0001C2040EBC25038BF70471CF07F0F18BF56
:1052C0007047C3F12003994014BF401E20F0010035
:1052D000704780084FEA122308BF7047B0FA80FC7D
:1052E000A2EB0C02CCF1280C60FA0CF093EA122F1E
:1052F00004BF00EBC25070474FEAC3707047130AF7
:105300005FEADC1008BF7047F6E79CEA026F04D042
:1053100010EA5C0F08BF0020704710B5FFF7D9FEF8
:1053200040DFF63E81F000407047FBF793B90CF088
:105330000F03092B08BF082000F051800A2B0BD067
:10534000082B18BF704708BF1CF0400F0AD04FF061
:1053500000004FF0000170471CF0400F18BF4FF0E5
:10536000004070471CF0100F08D020F0704300F090
:105370007F4242EAD3014FEA4370704700F0604039
:1053800021F07F4242EA000201F07F4040EA727061
:1053900070474FF0FF0212EAD0521CBF92F0FF0399
:1053A0008B42C2BFD14200EBC1507047002A0AD0E5
:1053B000002B0BD0002900F00040A4BF40F0FE40BD
:1053C00040F40000704700F00040704743024FF087
:1053D0000B0C18BF4CF0806C7FF456AC70471CF47B
:1053E000801F11D01CF4E02F03D06FEACC314900AC
:1053F00070474FF04050EFF3008222F0704242EAD3
:10540000000282F3008870474FF0000070470000F0
:10541000100000001000000010000000100000004C
:105420000020000000200000400000018000000279
:1054300040000100800002000400000004000000A1
:1054400002000000080000001D32000000080000FB
:1054500004000000191E0000000000006E83F9A285
:105460002915444ED15727FCC0DD34F5999562DBF0
:105470004190433CAB6351FE02400000000000A09D
:105480000000000005400000000000C8000000000F
:105490000C4000000000409C00000000194000008B
:1054A0000020BCBE0000000034400000BFC91B8EBD
:1054B00000000004B5400000504BCFD06607E2CF9B
:1054C000010000006C4100003E8251AADFEEA734CB
:1054D00001000000D9420000DCB5A0E23A301F977D
:1054E000FFFFFFFFB4450000FD25A0C8E9A3C14FA1
:1054F000FFFFFFFFFF3F00000000008000000000F2
:10550000FF3F000000000080000000004C55000834
:1055100000000020080100006C010008545600083B
:105520000801002058090000880100081C00000044
:1055300043000000F8FFFFFF0C0000000E00000019
:105540000F0000002E0000003DE1FFFF00A24A0412
:105550000000000000000000010203040607080923
:1055600000000000140000000000803F0000000068
:10557000000000000000000000000000000000002B
:10558000000000000000000000000000000000001B
:10559000000000000000000000000000000000000B
:1055A00000000000000000000001020304010203EB
:1055B00004060708090204060800000000000000B5
:1055C00000000100001001400010014000100140E7
:1055D0000010014000340140003401400000000090
:1055E0000000000000000000000801400008014029
:1055F00000040040000C004000000000000000001B
:1056000000000000002C01400008004000000000E5
:105610000AD7A33B000048430000224300007E421B
:10562000000000000000000000000000000000007A
:10563000000000000000000000000000000000006A
:10564000000000000000000000000000000000005A
:045650000100000055
:0400000508000131BD
:00000001FF
